{
  "contractName": "Bills",
  "abi": [
    {
      "constant": true,
      "inputs": [
        {
          "name": "",
          "type": "uint256"
        }
      ],
      "name": "bills",
      "outputs": [
        {
          "name": "id",
          "type": "uint256"
        },
        {
          "name": "workSection",
          "type": "string"
        },
        {
          "name": "component",
          "type": "string"
        },
        {
          "name": "itemDescription",
          "type": "string"
        },
        {
          "name": "unit",
          "type": "string"
        },
        {
          "name": "quantity",
          "type": "uint256"
        },
        {
          "name": "unitPrice",
          "type": "uint256"
        },
        {
          "name": "baseppi",
          "type": "uint256"
        },
        {
          "name": "ppi",
          "type": "uint256"
        },
        {
          "name": "owner",
          "type": "address"
        }
      ],
      "payable": false,
      "stateMutability": "view",
      "type": "function",
      "signature": "0x28bdcde8"
    },
    {
      "constant": true,
      "inputs": [],
      "name": "billCount",
      "outputs": [
        {
          "name": "",
          "type": "uint256"
        }
      ],
      "payable": false,
      "stateMutability": "view",
      "type": "function",
      "signature": "0x41dc3412"
    },
    {
      "constant": true,
      "inputs": [],
      "name": "owner",
      "outputs": [
        {
          "name": "",
          "type": "address"
        }
      ],
      "payable": false,
      "stateMutability": "view",
      "type": "function",
      "signature": "0x8da5cb5b"
    },
    {
      "constant": true,
      "inputs": [],
      "name": "projectName",
      "outputs": [
        {
          "name": "",
          "type": "string"
        }
      ],
      "payable": false,
      "stateMutability": "view",
      "type": "function",
      "signature": "0x9a33e300"
    },
    {
      "constant": true,
      "inputs": [],
      "name": "oracleAddress",
      "outputs": [
        {
          "name": "",
          "type": "address"
        }
      ],
      "payable": false,
      "stateMutability": "view",
      "type": "function",
      "signature": "0xa89ae4ba"
    },
    {
      "constant": false,
      "inputs": [
        {
          "name": "newOwner",
          "type": "address"
        }
      ],
      "name": "transferOwnership",
      "outputs": [],
      "payable": false,
      "stateMutability": "nonpayable",
      "type": "function",
      "signature": "0xf2fde38b"
    },
    {
      "anonymous": false,
      "inputs": [
        {
          "indexed": false,
          "name": "id",
          "type": "uint256"
        },
        {
          "indexed": false,
          "name": "workSection",
          "type": "string"
        },
        {
          "indexed": false,
          "name": "component",
          "type": "string"
        },
        {
          "indexed": false,
          "name": "itemDescription",
          "type": "string"
        },
        {
          "indexed": false,
          "name": "unit",
          "type": "string"
        },
        {
          "indexed": false,
          "name": "quantity",
          "type": "uint256"
        },
        {
          "indexed": false,
          "name": "unitPrice",
          "type": "uint256"
        },
        {
          "indexed": false,
          "name": "baseppi",
          "type": "uint256"
        },
        {
          "indexed": false,
          "name": "ppi",
          "type": "uint256"
        },
        {
          "indexed": false,
          "name": "owner",
          "type": "address"
        }
      ],
      "name": "BillCreated",
      "type": "event",
      "signature": "0xce403fd4e80c18488a6b2b2114fd2ec60cb6b34f1f7fc03d23ff370bb4c8d2b5"
    },
    {
      "anonymous": false,
      "inputs": [
        {
          "indexed": false,
          "name": "oracleAddress",
          "type": "address"
        }
      ],
      "name": "newOracleAddress",
      "type": "event",
      "signature": "0xc28eb7a0f75c1ea69778cd210794a1abd3c1bf8b631c0dcff4266ee4cc8ad72b"
    },
    {
      "anonymous": false,
      "inputs": [
        {
          "indexed": false,
          "name": "id",
          "type": "uint256"
        }
      ],
      "name": "ReceivedNewRequestIdEvent",
      "type": "event",
      "signature": "0x3ed150819af981e387450beb90ec379b8b322150dbb299d492b108c59a623e4b"
    },
    {
      "anonymous": false,
      "inputs": [
        {
          "indexed": false,
          "name": "ppiValue",
          "type": "uint256"
        },
        {
          "indexed": false,
          "name": "id",
          "type": "uint256"
        }
      ],
      "name": "PriceUpdatedEvent",
      "type": "event",
      "signature": "0x6b69e4f2aedf7e65a79ecaf16e8869b2b99c87e341f2c51286bfd4a7fc3b9969"
    },
    {
      "anonymous": false,
      "inputs": [
        {
          "indexed": false,
          "name": "id",
          "type": "uint256"
        },
        {
          "indexed": false,
          "name": "quantity",
          "type": "uint256"
        }
      ],
      "name": "SetQuantity",
      "type": "event",
      "signature": "0x408808cd4c7f36039be305482209d3584d2fbe716d9cfa4744c27f1234d96bb2"
    },
    {
      "anonymous": false,
      "inputs": [
        {
          "indexed": false,
          "name": "id",
          "type": "uint256"
        },
        {
          "indexed": false,
          "name": "unitPrice",
          "type": "uint256"
        }
      ],
      "name": "SetUnitPrice",
      "type": "event",
      "signature": "0x3d27867e25d681a394dffbb83419d03e94ec628849122b3ba68e5d34b80a3d51"
    },
    {
      "anonymous": false,
      "inputs": [
        {
          "indexed": true,
          "name": "previousOwner",
          "type": "address"
        },
        {
          "indexed": true,
          "name": "newOwner",
          "type": "address"
        }
      ],
      "name": "OwnershipTransferred",
      "type": "event",
      "signature": "0x8be0079c531659141344cd1fd0a4f28419497f9722a3daafe3b4186f6b6457e0"
    },
    {
      "constant": false,
      "inputs": [
        {
          "name": "_workSection",
          "type": "string"
        },
        {
          "name": "_component",
          "type": "string"
        },
        {
          "name": "_itemDescription",
          "type": "string"
        },
        {
          "name": "_unit",
          "type": "string"
        },
        {
          "name": "_baseppi",
          "type": "uint256"
        },
        {
          "name": "_ppi",
          "type": "uint256"
        }
      ],
      "name": "createBill",
      "outputs": [],
      "payable": false,
      "stateMutability": "nonpayable",
      "type": "function",
      "signature": "0x6bc5f7b9"
    },
    {
      "constant": false,
      "inputs": [
        {
          "name": "_billId",
          "type": "uint256"
        },
        {
          "name": "_newQuantity",
          "type": "uint256"
        }
      ],
      "name": "setQuantity",
      "outputs": [],
      "payable": false,
      "stateMutability": "nonpayable",
      "type": "function",
      "signature": "0x9405c78f"
    },
    {
      "constant": false,
      "inputs": [
        {
          "name": "_billId",
          "type": "uint256"
        },
        {
          "name": "_newUnitPrice",
          "type": "uint256"
        }
      ],
      "name": "setUnitPrice",
      "outputs": [],
      "payable": false,
      "stateMutability": "nonpayable",
      "type": "function",
      "signature": "0xdc633839"
    },
    {
      "constant": false,
      "inputs": [
        {
          "name": "_oracleInstanceAddress",
          "type": "address"
        }
      ],
      "name": "setOracleInstanceAddress",
      "outputs": [],
      "payable": false,
      "stateMutability": "nonpayable",
      "type": "function",
      "signature": "0xe9e17a9e"
    },
    {
      "constant": false,
      "inputs": [],
      "name": "updateppiPrice",
      "outputs": [],
      "payable": false,
      "stateMutability": "nonpayable",
      "type": "function",
      "signature": "0x22b01dff"
    },
    {
      "constant": false,
      "inputs": [
        {
          "name": "_ppiPrice",
          "type": "uint256"
        },
        {
          "name": "_id",
          "type": "uint256"
        }
      ],
      "name": "callBack",
      "outputs": [],
      "payable": false,
      "stateMutability": "nonpayable",
      "type": "function",
      "signature": "0xdfdf8501"
    }
  ],
  "bytecode": "0x60806040526000600255336000806101000a81548173ffffffffffffffffffffffffffffffffffffffff021916908373ffffffffffffffffffffffffffffffffffffffff16021790555061177c806100586000396000f3fe6080604052600436106100ba576000357c0100000000000000000000000000000000000000000000000000000000900463ffffffff16806322b01dff146100bf57806328bdcde8146100d657806341dc3412146103245780636bc5f7b91461034f5780638da5cb5b146105f05780639405c78f146106475780639a33e3001461068c578063a89ae4ba1461071c578063dc63383914610773578063dfdf8501146107b8578063e9e17a9e146107fd578063f2fde38b1461084e575b600080fd5b3480156100cb57600080fd5b506100d461089f565b005b3480156100e257600080fd5b5061010f600480360360208110156100f957600080fd5b81019080803590602001909291905050506109ca565b604051808b8152602001806020018060200180602001806020018a81526020018981526020018881526020018781526020018673ffffffffffffffffffffffffffffffffffffffff1673ffffffffffffffffffffffffffffffffffffffff16815260200185810385528e818151815260200191508051906020019080838360005b838110156101ab578082015181840152602081019050610190565b50505050905090810190601f1680156101d85780820380516001836020036101000a031916815260200191505b5085810384528d818151815260200191508051906020019080838360005b838110156102115780820151818401526020810190506101f6565b50505050905090810190601f16801561023e5780820380516001836020036101000a031916815260200191505b5085810383528c818151815260200191508051906020019080838360005b8381101561027757808201518184015260208101905061025c565b50505050905090810190601f1680156102a45780820380516001836020036101000a031916815260200191505b5085810382528b818151815260200191508051906020019080838360005b838110156102dd5780820151818401526020810190506102c2565b50505050905090810190601f16801561030a5780820380516001836020036101000a031916815260200191505b509e50505050505050505050505050505060405180910390f35b34801561033057600080fd5b50610339610c9e565b6040518082815260200191505060405180910390f35b34801561035b57600080fd5b506105ee600480360360c081101561037257600080fd5b810190808035906020019064010000000081111561038f57600080fd5b8201836020820111156103a157600080fd5b803590602001918460018302840111640100000000831117156103c357600080fd5b91908080601f016020809104026020016040519081016040528093929190818152602001838380828437600081840152601f19601f8201169050808301925050505050505091929192908035906020019064010000000081111561042657600080fd5b82018360208201111561043857600080fd5b8035906020019184600183028401116401000000008311171561045a57600080fd5b91908080601f016020809104026020016040519081016040528093929190818152602001838380828437600081840152601f19601f820116905080830192505050505050509192919290803590602001906401000000008111156104bd57600080fd5b8201836020820111156104cf57600080fd5b803590602001918460018302840111640100000000831117156104f157600080fd5b91908080601f016020809104026020016040519081016040528093929190818152602001838380828437600081840152601f19601f8201169050808301925050505050505091929192908035906020019064010000000081111561055457600080fd5b82018360208201111561056657600080fd5b8035906020019184600183028401116401000000008311171561058857600080fd5b91908080601f016020809104026020016040519081016040528093929190818152602001838380828437600081840152601f19601f8201169050808301925050505050505091929192908035906020019092919080359060200190929190505050610ca4565b005b3480156105fc57600080fd5b50610605611072565b604051808273ffffffffffffffffffffffffffffffffffffffff1673ffffffffffffffffffffffffffffffffffffffff16815260200191505060405180910390f35b34801561065357600080fd5b5061068a6004803603604081101561066a57600080fd5b810190808035906020019092919080359060200190929190505050611097565b005b34801561069857600080fd5b506106a16110f5565b6040518080602001828103825283818151815260200191508051906020019080838360005b838110156106e15780820151818401526020810190506106c6565b50505050905090810190601f16801561070e5780820380516001836020036101000a031916815260200191505b509250505060405180910390f35b34801561072857600080fd5b50610731611193565b604051808273ffffffffffffffffffffffffffffffffffffffff1673ffffffffffffffffffffffffffffffffffffffff16815260200191505060405180910390f35b34801561077f57600080fd5b506107b66004803603604081101561079657600080fd5b8101908080359060200190929190803590602001909291905050506111b9565b005b3480156107c457600080fd5b506107fb600480360360408110156107db57600080fd5b810190808035906020019092919080359060200190929190505050611217565b005b34801561080957600080fd5b5061084c6004803603602081101561082057600080fd5b81019080803573ffffffffffffffffffffffffffffffffffffffff16906020019092919050505061142a565b005b34801561085a57600080fd5b5061089d6004803603602081101561087157600080fd5b81019080803573ffffffffffffffffffffffffffffffffffffffff169060200190929190505050611556565b005b6000600560009054906101000a900473ffffffffffffffffffffffffffffffffffffffff1673ffffffffffffffffffffffffffffffffffffffff1663f69ab1786040518163ffffffff167c0100000000000000000000000000000000000000000000000000000000028152600401602060405180830381600087803b15801561092757600080fd5b505af115801561093b573d6000803e3d6000fd5b505050506040513d602081101561095157600080fd5b8101908080519060200190929190505050905060016006600083815260200190815260200160002060006101000a81548160ff0219169083151502179055507f3ed150819af981e387450beb90ec379b8b322150dbb299d492b108c59a623e4b816040518082815260200191505060405180910390a150565b6003602052806000526040600020600091509050806000015490806001018054600181600116156101000203166002900480601f016020809104026020016040519081016040528092919081815260200182805460018160011615610100020316600290048015610a7c5780601f10610a5157610100808354040283529160200191610a7c565b820191906000526020600020905b815481529060010190602001808311610a5f57829003601f168201915b505050505090806002018054600181600116156101000203166002900480601f016020809104026020016040519081016040528092919081815260200182805460018160011615610100020316600290048015610b1a5780601f10610aef57610100808354040283529160200191610b1a565b820191906000526020600020905b815481529060010190602001808311610afd57829003601f168201915b505050505090806003018054600181600116156101000203166002900480601f016020809104026020016040519081016040528092919081815260200182805460018160011615610100020316600290048015610bb85780601f10610b8d57610100808354040283529160200191610bb8565b820191906000526020600020905b815481529060010190602001808311610b9b57829003601f168201915b505050505090806004018054600181600116156101000203166002900480601f016020809104026020016040519081016040528092919081815260200182805460018160011615610100020316600290048015610c565780601f10610c2b57610100808354040283529160200191610c56565b820191906000526020600020905b815481529060010190602001808311610c3957829003601f168201915b5050505050908060050154908060060154908060070154908060080154908060090160009054906101000a900473ffffffffffffffffffffffffffffffffffffffff1690508a565b60025481565b60026000815480929190600101919050555060008090506000600190506101406040519081016040528060025481526020018981526020018881526020018781526020018681526020018381526020018281526020018581526020018481526020013373ffffffffffffffffffffffffffffffffffffffff16815250600360006002548152602001908152602001600020600082015181600001556020820151816001019080519060200190610d5b9291906116ab565b506040820151816002019080519060200190610d789291906116ab565b506060820151816003019080519060200190610d959291906116ab565b506080820151816004019080519060200190610db29291906116ab565b5060a0820151816005015560c0820151816006015560e0820151816007015561010082015181600801556101208201518160090160006101000a81548173ffffffffffffffffffffffffffffffffffffffff021916908373ffffffffffffffffffffffffffffffffffffffff1602179055509050507fce403fd4e80c18488a6b2b2114fd2ec60cb6b34f1f7fc03d23ff370bb4c8d2b56002548989898987878b8b33604051808b8152602001806020018060200180602001806020018a81526020018981526020018881526020018781526020018673ffffffffffffffffffffffffffffffffffffffff1673ffffffffffffffffffffffffffffffffffffffff16815260200185810385528e818151815260200191508051906020019080838360005b83811015610ef0578082015181840152602081019050610ed5565b50505050905090810190601f168015610f1d5780820380516001836020036101000a031916815260200191505b5085810384528d818151815260200191508051906020019080838360005b83811015610f56578082015181840152602081019050610f3b565b50505050905090810190601f168015610f835780820380516001836020036101000a031916815260200191505b5085810383528c818151815260200191508051906020019080838360005b83811015610fbc578082015181840152602081019050610fa1565b50505050905090810190601f168015610fe95780820380516001836020036101000a031916815260200191505b5085810382528b818151815260200191508051906020019080838360005b83811015611022578082015181840152602081019050611007565b50505050905090810190601f16801561104f5780820380516001836020036101000a031916815260200191505b509e50505050505050505050505050505060405180910390a15050505050505050565b6000809054906101000a900473ffffffffffffffffffffffffffffffffffffffff1681565b8060036000848152602001908152602001600020600501819055507f408808cd4c7f36039be305482209d3584d2fbe716d9cfa4744c27f1234d96bb28282604051808381526020018281526020019250505060405180910390a15050565b60018054600181600116156101000203166002900480601f01602080910402602001604051908101604052809291908181526020018280546001816001161561010002031660029004801561118b5780601f106111605761010080835404028352916020019161118b565b820191906000526020600020905b81548152906001019060200180831161116e57829003601f168201915b505050505081565b600460009054906101000a900473ffffffffffffffffffffffffffffffffffffffff1681565b8060036000848152602001908152602001600020600601819055507f3d27867e25d681a394dffbb83419d03e94ec628849122b3ba68e5d34b80a3d518282604051808381526020018281526020019250505060405180910390a15050565b600460009054906101000a900473ffffffffffffffffffffffffffffffffffffffff1673ffffffffffffffffffffffffffffffffffffffff163373ffffffffffffffffffffffffffffffffffffffff16141515611302576040517f08c379a000000000000000000000000000000000000000000000000000000000815260040180806020018281038252602d8152602001807f596f7520617265206e6f7420617574686f72697a656420746f2063616c6c207481526020017f6869732066756e6374696f6e2e0000000000000000000000000000000000000081525060400191505060405180910390fd5b6006600082815260200190815260200160002060009054906101000a900460ff1615156113bd576040517f08c379a00000000000000000000000000000000000000000000000000000000081526004018080602001828103825260288152602001807f546869732072657175657374206973206e6f7420696e207468652070656e646981526020017f6e67206c6973742e00000000000000000000000000000000000000000000000081525060400191505060405180910390fd5b816007819055506006600082815260200190815260200160002060006101000a81549060ff02191690557f6b69e4f2aedf7e65a79ecaf16e8869b2b99c87e341f2c51286bfd4a7fc3b99698282604051808381526020018281526020019250505060405180910390a15050565b80600460006101000a81548173ffffffffffffffffffffffffffffffffffffffff021916908373ffffffffffffffffffffffffffffffffffffffff160217905550600460009054906101000a900473ffffffffffffffffffffffffffffffffffffffff16600560006101000a81548173ffffffffffffffffffffffffffffffffffffffff021916908373ffffffffffffffffffffffffffffffffffffffff1602179055507fc28eb7a0f75c1ea69778cd210794a1abd3c1bf8b631c0dcff4266ee4cc8ad72b600460009054906101000a900473ffffffffffffffffffffffffffffffffffffffff16604051808273ffffffffffffffffffffffffffffffffffffffff1673ffffffffffffffffffffffffffffffffffffffff16815260200191505060405180910390a150565b6000809054906101000a900473ffffffffffffffffffffffffffffffffffffffff1673ffffffffffffffffffffffffffffffffffffffff163373ffffffffffffffffffffffffffffffffffffffff161415156115b157600080fd5b600073ffffffffffffffffffffffffffffffffffffffff168173ffffffffffffffffffffffffffffffffffffffff16141515156115ed57600080fd5b8073ffffffffffffffffffffffffffffffffffffffff166000809054906101000a900473ffffffffffffffffffffffffffffffffffffffff1673ffffffffffffffffffffffffffffffffffffffff167f8be0079c531659141344cd1fd0a4f28419497f9722a3daafe3b4186f6b6457e060405160405180910390a3806000806101000a81548173ffffffffffffffffffffffffffffffffffffffff021916908373ffffffffffffffffffffffffffffffffffffffff16021790555050565b828054600181600116156101000203166002900490600052602060002090601f016020900481019282601f106116ec57805160ff191683800117855561171a565b8280016001018555821561171a579182015b828111156117195782518255916020019190600101906116fe565b5b509050611727919061172b565b5090565b61174d91905b80821115611749576000816000905550600101611731565b5090565b9056fea165627a7a72305820eba71fd36bf474814c25a6ae0e01867fd83b96c304923793048dafb95974aae20029",
  "source": "pragma solidity >=0.5.0;\n\nimport \"./Ownable.sol\";\nimport \"./PriceOracleInterface.sol\";\n\ncontract Bills is Ownable {\n    string public projectName;\n    uint256 public billCount = 0;\n    //ID maps to a bill (struct Bill) from the list of bills\n    mapping(uint256 => Bill) public bills;\n\n    //for oracle\n    address public oracleAddress;\n    PriceOracleInterface private oracleInstance;\n    mapping(uint256 => bool) myRequests;\n    uint256 private ppiPrice;\n\n    struct Bill {\n        uint256 id;\n        string workSection;\n        string component;\n        string itemDescription;\n        string unit;\n        uint256 quantity;\n        uint256 unitPrice;\n        uint256 baseppi;\n        uint256 ppi;\n        address owner;\n    }\n\n    event BillCreated(\n        uint256 id,\n        string workSection,\n        string component,\n        string itemDescription,\n        string unit,\n        uint256 quantity,\n        uint256 unitPrice,\n        uint256 baseppi,\n        uint256 ppi,\n        address owner\n    );\n\n    event newOracleAddress(address oracleAddress);\n    event ReceivedNewRequestIdEvent(uint256 id);\n    event PriceUpdatedEvent(uint256 ppiValue, uint256 id);\n    event SetQuantity(uint256 id, uint256 quantity);\n    event SetUnitPrice(uint256 id, uint256 unitPrice);\n\n    function createBill(\n        string memory _workSection,\n        string memory _component,\n        string memory _itemDescription,\n        string memory _unit,\n        uint256 _baseppi,\n        uint256 _ppi\n    ) public {\n        billCount++;\n        uint256 _quantity = 0;\n        uint256 _unitPrice = 1;\n\n        bills[billCount] = Bill(\n            billCount,\n            _workSection,\n            _component,\n            _itemDescription,\n            _unit,\n            _quantity,\n            _unitPrice,\n            _baseppi,\n            _ppi,\n            msg.sender\n        );\n\n        emit BillCreated(\n            billCount,\n            _workSection,\n            _component,\n            _itemDescription,\n            _unit,\n            _quantity,\n            _unitPrice,\n            _baseppi,\n            _ppi,\n            msg.sender\n        );\n    }\n\n    function setQuantity(uint256 _billId, uint256 _newQuantity) public {\n        // require(\n        //     msg.sender == bills[_billId].owner,\n        //     \"Only the owner can set the quantity.\"\n        // );\n        bills[_billId].quantity = _newQuantity;\n\n        emit SetQuantity(_billId, _newQuantity);\n    }\n\n    function setUnitPrice(uint256 _billId, uint256 _newUnitPrice) public {\n        // require(\n        //     msg.sender == bills[_billId].owner,\n        //     \"Only the owner can set the unit price.\"\n        // );\n        bills[_billId].unitPrice = _newUnitPrice;\n\n        emit SetUnitPrice(_billId, _newUnitPrice);\n    }\n\n    function setOracleInstanceAddress(address _oracleInstanceAddress) public {\n        oracleAddress = _oracleInstanceAddress;\n        oracleInstance = PriceOracleInterface(oracleAddress);\n        emit newOracleAddress(oracleAddress);\n    }\n\n    function updateppiPrice() public {\n        uint256 id = oracleInstance.getLatestppi();\n        myRequests[id] = true;\n        emit ReceivedNewRequestIdEvent(id);\n    }\n\n    function callBack(uint256 _ppiPrice, uint256 _id) public onlyOracle {\n        require(myRequests[_id], \"This request is not in the pending list.\");\n        ppiPrice = _ppiPrice;\n        delete myRequests[_id];\n        emit PriceUpdatedEvent(_ppiPrice, _id);\n    }\n\n    modifier onlyOracle() {\n        require(\n            msg.sender == oracleAddress,\n            \"You are not authorized to call this function.\"\n        );\n        _;\n    }\n}\n",
  "sourcePath": "/Users/sc/bills_block/main/src/contracts/Bills.sol",
  "compiler": {
    "name": "solc",
    "version": "0.5.0+commit.1d4f565a.Emscripten.clang"
  },
  "schemaVersion": "3.0.2",
  "updatedAt": "2020-07-19T03:52:39.713Z",
  "devdoc": {
    "methods": {
      "transferOwnership(address)": {
        "details": "Allows the current owner to transfer control of the contract to a newOwner.",
        "params": {
          "newOwner": "The address to transfer ownership to."
        }
      }
    }
  },
  "userdoc": {
    "methods": {}
  }
}