{
  "contractName": "BillsOracle",
  "abi": [
    {
      "constant": true,
      "inputs": [],
      "name": "owner",
      "outputs": [
        {
          "name": "",
          "type": "address"
        }
      ],
      "payable": false,
      "stateMutability": "view",
      "type": "function",
      "signature": "0x8da5cb5b"
    },
    {
      "constant": false,
      "inputs": [
        {
          "name": "newOwner",
          "type": "address"
        }
      ],
      "name": "transferOwnership",
      "outputs": [],
      "payable": false,
      "stateMutability": "nonpayable",
      "type": "function",
      "signature": "0xf2fde38b"
    },
    {
      "anonymous": false,
      "inputs": [
        {
          "indexed": false,
          "name": "ppi",
          "type": "uint256"
        },
        {
          "indexed": false,
          "name": "callerAddress",
          "type": "address"
        }
      ],
      "name": "SetLatestppi",
      "type": "event",
      "signature": "0x1e321d9b220c26120252f17dc9f1ee481bbd874cfce7317ac8b092913a5c8d57"
    },
    {
      "anonymous": false,
      "inputs": [
        {
          "indexed": false,
          "name": "callerAddress",
          "type": "address"
        },
        {
          "indexed": false,
          "name": "id",
          "type": "uint256"
        }
      ],
      "name": "GetLatestppi",
      "type": "event",
      "signature": "0xa2c6970ab76eeada17c654dd6fdbe449a244ccb2521ae8242bc4ec7c94c88177"
    },
    {
      "anonymous": false,
      "inputs": [
        {
          "indexed": true,
          "name": "previousOwner",
          "type": "address"
        },
        {
          "indexed": true,
          "name": "newOwner",
          "type": "address"
        }
      ],
      "name": "OwnershipTransferred",
      "type": "event",
      "signature": "0x8be0079c531659141344cd1fd0a4f28419497f9722a3daafe3b4186f6b6457e0"
    },
    {
      "constant": false,
      "inputs": [],
      "name": "getLatestppi",
      "outputs": [
        {
          "name": "",
          "type": "uint256"
        }
      ],
      "payable": false,
      "stateMutability": "nonpayable",
      "type": "function",
      "signature": "0xf69ab178"
    },
    {
      "constant": false,
      "inputs": [
        {
          "name": "_ppi",
          "type": "uint256"
        },
        {
          "name": "_callerAddress",
          "type": "address"
        },
        {
          "name": "_id",
          "type": "uint256"
        }
      ],
      "name": "setLatestppi",
      "outputs": [],
      "payable": false,
      "stateMutability": "nonpayable",
      "type": "function",
      "signature": "0xc67dc7fa"
    }
  ],
  "bytecode": "0x608060405260006001556103e8600255336000806101000a81548173ffffffffffffffffffffffffffffffffffffffff021916908373ffffffffffffffffffffffffffffffffffffffff1602179055506106be8061005e6000396000f3fe608060405260043610610062576000357c0100000000000000000000000000000000000000000000000000000000900463ffffffff1680638da5cb5b14610067578063c67dc7fa146100be578063f2fde38b14610123578063f69ab17814610174575b600080fd5b34801561007357600080fd5b5061007c61019f565b604051808273ffffffffffffffffffffffffffffffffffffffff1673ffffffffffffffffffffffffffffffffffffffff16815260200191505060405180910390f35b3480156100ca57600080fd5b50610121600480360360608110156100e157600080fd5b8101908080359060200190929190803573ffffffffffffffffffffffffffffffffffffffff169060200190929190803590602001909291905050506101c4565b005b34801561012f57600080fd5b506101726004803603602081101561014657600080fd5b81019080803573ffffffffffffffffffffffffffffffffffffffff169060200190929190505050610402565b005b34801561018057600080fd5b50610189610557565b6040518082815260200191505060405180910390f35b6000809054906101000a900473ffffffffffffffffffffffffffffffffffffffff1681565b6000809054906101000a900473ffffffffffffffffffffffffffffffffffffffff1673ffffffffffffffffffffffffffffffffffffffff163373ffffffffffffffffffffffffffffffffffffffff1614151561021f57600080fd5b6003600082815260200190815260200160002060009054906101000a900460ff1615156102da576040517f08c379a00000000000000000000000000000000000000000000000000000000081526004018080602001828103825260268152602001807f546869732072657175657374206973206e6f7420696e206d792070656e64696e81526020017f67206c697374000000000000000000000000000000000000000000000000000081525060400191505060405180910390fd5b6003600082815260200190815260200160002060006101000a81549060ff021916905560008290508073ffffffffffffffffffffffffffffffffffffffff1663dfdf850185846040518363ffffffff167c01000000000000000000000000000000000000000000000000000000000281526004018083815260200182815260200192505050600060405180830381600087803b15801561037957600080fd5b505af115801561038d573d6000803e3d6000fd5b505050507f1e321d9b220c26120252f17dc9f1ee481bbd874cfce7317ac8b092913a5c8d578484604051808381526020018273ffffffffffffffffffffffffffffffffffffffff1673ffffffffffffffffffffffffffffffffffffffff1681526020019250505060405180910390a150505050565b6000809054906101000a900473ffffffffffffffffffffffffffffffffffffffff1673ffffffffffffffffffffffffffffffffffffffff163373ffffffffffffffffffffffffffffffffffffffff1614151561045d57600080fd5b600073ffffffffffffffffffffffffffffffffffffffff168173ffffffffffffffffffffffffffffffffffffffff161415151561049957600080fd5b8073ffffffffffffffffffffffffffffffffffffffff166000809054906101000a900473ffffffffffffffffffffffffffffffffffffffff1673ffffffffffffffffffffffffffffffffffffffff167f8be0079c531659141344cd1fd0a4f28419497f9722a3daafe3b4186f6b6457e060405160405180910390a3806000806101000a81548173ffffffffffffffffffffffffffffffffffffffff021916908373ffffffffffffffffffffffffffffffffffffffff16021790555050565b600060016000815480929190600101919050555060006002544233600154604051602001808481526020018373ffffffffffffffffffffffffffffffffffffffff1673ffffffffffffffffffffffffffffffffffffffff166c01000000000000000000000000028152601401828152602001935050505060405160208183030381529060405280519060200120600190048115156105f157fe5b06905060016003600083815260200190815260200160002060006101000a81548160ff0219169083151502179055507fa2c6970ab76eeada17c654dd6fdbe449a244ccb2521ae8242bc4ec7c94c881773382604051808373ffffffffffffffffffffffffffffffffffffffff1673ffffffffffffffffffffffffffffffffffffffff1681526020018281526020019250505060405180910390a1809150509056fea165627a7a723058207c30f04eb7ea56e74137879bff7485045e3146b1c3203c1685355e1034d34ae80029",
  "source": "pragma solidity >=0.5.0;\n\nimport \"./Ownable.sol\";\nimport \"./CallerInterface.sol\";\n\n//The oracle is responsible to retrieve the PPI value from the public API\n//It just needs to know which one to retrieve\n//Inputs required (based on the work section (or component??))\n//For now: Concrete ingredients and related products and Architectural, engineering and related services\n//https://www.bls.gov/regions/mid-atlantic/data/producerpriceindexengineering_us_table.htm\n//https://www.bls.gov/regions/mid-atlantic/data/producerpriceindexconcrete_us_table.htm\n\n//Get and set functions. For now only get one value\n//address: 0xC85E4ac66c1978C8793705F3ED0716C009DA6ACD\n\ncontract BillsOracle is Ownable {\n    uint256 private randNonce = 0;\n    uint256 private modulus = 1000;\n    mapping(uint256 => bool) pendingRequests;\n\n    event SetLatestppi(uint256 ppi, address callerAddress);\n    event GetLatestppi(address callerAddress, uint256 id);\n\n    function getLatestppi() public returns (uint256) {\n        randNonce++;\n        uint256 id = uint256(\n            keccak256(abi.encodePacked(now, msg.sender, randNonce))\n        ) % modulus;\n        pendingRequests[id] = true;\n        emit GetLatestppi(msg.sender, id);\n        return id;\n    }\n\n    function setLatestppi(\n        uint256 _ppi,\n        address _callerAddress,\n        uint256 _id\n    ) public onlyOwner {\n        require(pendingRequests[_id], \"This request is not in my pending list\");\n        delete pendingRequests[_id];\n        CallerInterface callerInstance;\n        callerInstance = CallerInterface(_callerAddress);\n        callerInstance.callBack(_ppi, _id);\n        emit SetLatestppi(_ppi, _callerAddress);\n    }\n}\n",
  "sourcePath": "/Users/sc/bills_block/main/src/contracts/BillsOracle.sol",
  "compiler": {
    "name": "solc",
    "version": "0.5.0+commit.1d4f565a.Emscripten.clang"
  },
  "schemaVersion": "3.0.2",
  "updatedAt": "2020-06-16T02:20:48.510Z",
  "devdoc": {
    "methods": {
      "transferOwnership(address)": {
        "details": "Allows the current owner to transfer control of the contract to a newOwner.",
        "params": {
          "newOwner": "The address to transfer ownership to."
        }
      }
    }
  },
  "userdoc": {
    "methods": {}
  }
}