{
  "contractName": "Bills",
  "abi": [
    {
      "constant": true,
      "inputs": [
        {
          "name": "",
          "type": "uint256"
        }
      ],
      "name": "bills",
      "outputs": [
        {
          "name": "id",
          "type": "uint256"
        },
        {
          "name": "workSection",
          "type": "string"
        },
        {
          "name": "component",
          "type": "string"
        },
        {
          "name": "itemDescription",
          "type": "string"
        },
        {
          "name": "unit",
          "type": "string"
        },
        {
          "name": "quantity",
          "type": "uint256"
        },
        {
          "name": "rate",
          "type": "uint256"
        },
        {
          "name": "total",
          "type": "uint256"
        }
      ],
      "payable": false,
      "stateMutability": "view",
      "type": "function"
    },
    {
      "constant": true,
      "inputs": [],
      "name": "billCount",
      "outputs": [
        {
          "name": "",
          "type": "uint256"
        }
      ],
      "payable": false,
      "stateMutability": "view",
      "type": "function"
    },
    {
      "constant": true,
      "inputs": [],
      "name": "projectName",
      "outputs": [
        {
          "name": "",
          "type": "string"
        }
      ],
      "payable": false,
      "stateMutability": "view",
      "type": "function"
    },
    {
      "anonymous": false,
      "inputs": [
        {
          "indexed": false,
          "name": "id",
          "type": "uint256"
        },
        {
          "indexed": false,
          "name": "workSection",
          "type": "string"
        },
        {
          "indexed": false,
          "name": "component",
          "type": "string"
        },
        {
          "indexed": false,
          "name": "itemDescription",
          "type": "string"
        },
        {
          "indexed": false,
          "name": "unit",
          "type": "string"
        },
        {
          "indexed": false,
          "name": "quantity",
          "type": "uint256"
        },
        {
          "indexed": false,
          "name": "rate",
          "type": "uint256"
        },
        {
          "indexed": false,
          "name": "total",
          "type": "uint256"
        }
      ],
      "name": "billCreated",
      "type": "event"
    },
    {
      "constant": false,
      "inputs": [
        {
          "name": "_workSection",
          "type": "string"
        },
        {
          "name": "_component",
          "type": "string"
        },
        {
          "name": "_itemDescription",
          "type": "string"
        }
      ],
      "name": "createBill",
      "outputs": [],
      "payable": false,
      "stateMutability": "nonpayable",
      "type": "function"
    }
  ],
  "bytecode": "0x608060405234801561001057600080fd5b50610a7b806100206000396000f3fe608060405260043610610062576000357c0100000000000000000000000000000000000000000000000000000000900463ffffffff16806328bdcde81461006757806341dc34121461027b5780639a33e300146102a6578063edb86d2f14610336575b600080fd5b34801561007357600080fd5b506100a06004803603602081101561008a57600080fd5b810190808035906020019092919050505061052c565b604051808981526020018060200180602001806020018060200188815260200187815260200186815260200185810385528c818151815260200191508051906020019080838360005b838110156101045780820151818401526020810190506100e9565b50505050905090810190601f1680156101315780820380516001836020036101000a031916815260200191505b5085810384528b818151815260200191508051906020019080838360005b8381101561016a57808201518184015260208101905061014f565b50505050905090810190601f1680156101975780820380516001836020036101000a031916815260200191505b5085810383528a818151815260200191508051906020019080838360005b838110156101d05780820151818401526020810190506101b5565b50505050905090810190601f1680156101fd5780820380516001836020036101000a031916815260200191505b50858103825289818151815260200191508051906020019080838360005b8381101561023657808201518184015260208101905061021b565b50505050905090810190601f1680156102635780820380516001836020036101000a031916815260200191505b509c5050505050505050505050505060405180910390f35b34801561028757600080fd5b506102906107d4565b6040518082815260200191505060405180910390f35b3480156102b257600080fd5b506102bb6107da565b6040518080602001828103825283818151815260200191508051906020019080838360005b838110156102fb5780820151818401526020810190506102e0565b50505050905090810190601f1680156103285780820380516001836020036101000a031916815260200191505b509250505060405180910390f35b34801561034257600080fd5b5061052a6004803603606081101561035957600080fd5b810190808035906020019064010000000081111561037657600080fd5b82018360208201111561038857600080fd5b803590602001918460018302840111640100000000831117156103aa57600080fd5b91908080601f016020809104026020016040519081016040528093929190818152602001838380828437600081840152601f19601f8201169050808301925050505050505091929192908035906020019064010000000081111561040d57600080fd5b82018360208201111561041f57600080fd5b8035906020019184600183028401116401000000008311171561044157600080fd5b91908080601f016020809104026020016040519081016040528093929190818152602001838380828437600081840152601f19601f820116905080830192505050505050509192919290803590602001906401000000008111156104a457600080fd5b8201836020820111156104b657600080fd5b803590602001918460018302840111640100000000831117156104d857600080fd5b91908080601f016020809104026020016040519081016040528093929190818152602001838380828437600081840152601f19601f820116905080830192505050505050509192919290505050610878565b005b6002602052806000526040600020600091509050806000015490806001018054600181600116156101000203166002900480601f0160208091040260200160405190810160405280929190818152602001828054600181600116156101000203166002900480156105de5780601f106105b3576101008083540402835291602001916105de565b820191906000526020600020905b8154815290600101906020018083116105c157829003601f168201915b505050505090806002018054600181600116156101000203166002900480601f01602080910402602001604051908101604052809291908181526020018280546001816001161561010002031660029004801561067c5780601f106106515761010080835404028352916020019161067c565b820191906000526020600020905b81548152906001019060200180831161065f57829003601f168201915b505050505090806003018054600181600116156101000203166002900480601f01602080910402602001604051908101604052809291908181526020018280546001816001161561010002031660029004801561071a5780601f106106ef5761010080835404028352916020019161071a565b820191906000526020600020905b8154815290600101906020018083116106fd57829003601f168201915b505050505090806004018054600181600116156101000203166002900480601f0160208091040260200160405190810160405280929190818152602001828054600181600116156101000203166002900480156107b85780601f1061078d576101008083540402835291602001916107b8565b820191906000526020600020905b81548152906001019060200180831161079b57829003601f168201915b5050505050908060050154908060060154908060070154905088565b60015481565b60008054600181600116156101000203166002900480601f0160208091040260200160405190810160405280929190818152602001828054600181600116156101000203166002900480156108705780601f1061084557610100808354040283529160200191610870565b820191906000526020600020905b81548152906001019060200180831161085357829003601f168201915b505050505081565b6001600081548092919060010191905055506060602060405190810160405280600081525090506000809050600080905060008183029050610100604051908101604052806001548152602001888152602001878152602001868152602001858152602001848152602001838152602001828152506002600060015481526020019081526020016000206000820151816000015560208201518160010190805190602001906109289291906109aa565b5060408201518160020190805190602001906109459291906109aa565b5060608201518160030190805190602001906109629291906109aa565b50608082015181600401908051906020019061097f9291906109aa565b5060a0820151816005015560c0820151816006015560e0820151816007015590505050505050505050565b828054600181600116156101000203166002900490600052602060002090601f016020900481019282601f106109eb57805160ff1916838001178555610a19565b82800160010185558215610a19579182015b82811115610a185782518255916020019190600101906109fd565b5b509050610a269190610a2a565b5090565b610a4c91905b80821115610a48576000816000905550600101610a30565b5090565b9056fea165627a7a7230582091344c81febc4421abab3f5c76840062548329ed8ba8f8a356cac34993ebf4700029",
  "source": "pragma solidity ^0.5.0;\n\n\ncontract Bills {\n    string public projectName;\n    uint256 public billCount;\n    mapping(uint256 => Bill) public bills;\n\n    struct Bill {\n        uint256 id;\n        string workSection;\n        string component;\n        string itemDescription;\n        string unit;\n        uint256 quantity;\n        uint256 rate;\n        uint256 total;\n    }\n\n    event billCreated(\n        uint256 id,\n        string workSection,\n        string component,\n        string itemDescription,\n        string unit,\n        uint256 quantity,\n        uint256 rate,\n        uint256 total\n    );\n\n    function createBill(\n        string memory _workSection,\n        string memory _component,\n        string memory _itemDescription\n    ) public {\n        billCount++;\n        //temp\n        string memory _unit = \"\";\n        uint256 _quantity = 0;\n        uint256 _rate = 0;\n        uint256 _total = _quantity * _rate;\n\n        bills[billCount] = Bill(\n            billCount,\n            _workSection,\n            _component,\n            _itemDescription,\n            _unit,\n            _quantity,\n            _rate,\n            _total\n        );\n    }\n}\n",
  "sourcePath": "/Users/sc/bills_block/src/contracts/Bills.sol",
  "compiler": {
    "name": "solc",
    "version": "0.5.0+commit.1d4f565a.Emscripten.clang"
  },
  "schemaVersion": "3.0.2",
  "updatedAt": "2020-05-24T09:52:02.599Z",
  "devdoc": {
    "methods": {}
  },
  "userdoc": {
    "methods": {}
  }
}