{
  "contractName": "RoboGame",
  "abi": [
    {
      "constant": true,
      "inputs": [],
      "name": "name",
      "outputs": [
        {
          "name": "",
          "type": "string"
        }
      ],
      "payable": false,
      "stateMutability": "view",
      "type": "function",
      "signature": "0x06fdde03"
    },
    {
      "constant": true,
      "inputs": [
        {
          "name": "",
          "type": "uint256"
        }
      ],
      "name": "robots",
      "outputs": [
        {
          "name": "robotID",
          "type": "uint256"
        },
        {
          "name": "name",
          "type": "string"
        },
        {
          "name": "robotdna",
          "type": "uint256"
        },
        {
          "name": "level",
          "type": "uint256"
        },
        {
          "name": "owner",
          "type": "address"
        }
      ],
      "payable": false,
      "stateMutability": "view",
      "type": "function",
      "signature": "0xa03937c5"
    },
    {
      "constant": true,
      "inputs": [],
      "name": "robotCount",
      "outputs": [
        {
          "name": "",
          "type": "uint256"
        }
      ],
      "payable": false,
      "stateMutability": "view",
      "type": "function",
      "signature": "0xcb61997a"
    },
    {
      "inputs": [],
      "payable": false,
      "stateMutability": "nonpayable",
      "type": "constructor",
      "signature": "constructor"
    },
    {
      "anonymous": false,
      "inputs": [
        {
          "indexed": false,
          "name": "robotID",
          "type": "uint256"
        },
        {
          "indexed": false,
          "name": "name",
          "type": "string"
        },
        {
          "indexed": false,
          "name": "robotdna",
          "type": "uint256"
        },
        {
          "indexed": false,
          "name": "level",
          "type": "uint256"
        },
        {
          "indexed": false,
          "name": "owner",
          "type": "address"
        }
      ],
      "name": "RobotCreated",
      "type": "event",
      "signature": "0x25461e161d4b218e81ecce4a5d9a3a9563f6621ad3254d0d202cad21b18d035e"
    },
    {
      "anonymous": false,
      "inputs": [
        {
          "indexed": false,
          "name": "robotID",
          "type": "uint256"
        },
        {
          "indexed": false,
          "name": "name",
          "type": "string"
        },
        {
          "indexed": false,
          "name": "robotdna",
          "type": "uint256"
        },
        {
          "indexed": false,
          "name": "level",
          "type": "uint256"
        },
        {
          "indexed": false,
          "name": "owner",
          "type": "address"
        }
      ],
      "name": "LevelUp",
      "type": "event",
      "signature": "0x62528d3901d309eb0bc8dd32b4a660ff3f0a164a75c6617ef82019217643ccfe"
    },
    {
      "constant": false,
      "inputs": [
        {
          "name": "_name",
          "type": "string"
        }
      ],
      "name": "createRobot",
      "outputs": [],
      "payable": false,
      "stateMutability": "nonpayable",
      "type": "function",
      "signature": "0xc215d5fe"
    },
    {
      "constant": false,
      "inputs": [
        {
          "name": "_robotID",
          "type": "uint256"
        }
      ],
      "name": "levelRobot",
      "outputs": [],
      "payable": true,
      "stateMutability": "payable",
      "type": "function",
      "signature": "0x6d2c90ee"
    }
  ],
  "bytecode": "0x6080604052600060015534801561001557600080fd5b506040805190810160405280600b81526020017f526f626f742067616d652100000000000000000000000000000000000000000081525060009080519060200190610061929190610067565b5061010c565b828054600181600116156101000203166002900490600052602060002090601f016020900481019282601f106100a857805160ff19168380011785556100d6565b828001600101855582156100d6579182015b828111156100d55782518255916020019190600101906100ba565b5b5090506100e391906100e7565b5090565b61010991905b808211156101055760008160009055506001016100ed565b5090565b90565b610c7b8061011b6000396000f3fe60806040526004361061006d576000357c0100000000000000000000000000000000000000000000000000000000900463ffffffff16806306fdde03146100725780636d2c90ee14610102578063a03937c514610130578063c215d5fe1461022c578063cb61997a146102f4575b600080fd5b34801561007e57600080fd5b5061008761031f565b6040518080602001828103825283818151815260200191508051906020019080838360005b838110156100c75780820151818401526020810190506100ac565b50505050905090810190601f1680156100f45780820380516001836020036101000a031916815260200191505b509250505060405180910390f35b61012e6004803603602081101561011857600080fd5b81019080803590602001909291905050506103bd565b005b34801561013c57600080fd5b506101696004803603602081101561015357600080fd5b8101908080359060200190929190505050610776565b60405180868152602001806020018581526020018481526020018373ffffffffffffffffffffffffffffffffffffffff1673ffffffffffffffffffffffffffffffffffffffff168152602001828103825286818151815260200191508051906020019080838360005b838110156101ed5780820151818401526020810190506101d2565b50505050905090810190601f16801561021a5780820380516001836020036101000a031916815260200191505b50965050505050505060405180910390f35b34801561023857600080fd5b506102f26004803603602081101561024f57600080fd5b810190808035906020019064010000000081111561026c57600080fd5b82018360208201111561027e57600080fd5b803590602001918460018302840111640100000000831117156102a057600080fd5b91908080601f016020809104026020016040519081016040528093929190818152602001838380828437600081840152601f19601f820116905080830192505050505050509192919290505050610864565b005b34801561030057600080fd5b50610309610ac6565b6040518082815260200191505060405180910390f35b60008054600181600116156101000203166002900480601f0160208091040260200160405190810160405280929190818152602001828054600181600116156101000203166002900480156103b55780601f1061038a576101008083540402835291602001916103b5565b820191906000526020600020905b81548152906001019060200180831161039857829003601f168201915b505050505081565b6000811180156103cf57506001548111155b1515610443576040517f08c379a000000000000000000000000000000000000000000000000000000000815260040180806020018281038252600a8152602001807f496e76616c69642049440000000000000000000000000000000000000000000081525060200191505060405180910390fd5b61044b610b64565b6002600083815260200190815260200160002060a0604051908101604052908160008201548152602001600182018054600181600116156101000203166002900480601f01602080910402602001604051908101604052809291908181526020018280546001816001161561010002031660029004801561050d5780601f106104e25761010080835404028352916020019161050d565b820191906000526020600020905b8154815290600101906020018083116104f057829003601f168201915b5050505050815260200160028201548152602001600382015481526020016004820160009054906101000a900473ffffffffffffffffffffffffffffffffffffffff1673ffffffffffffffffffffffffffffffffffffffff1673ffffffffffffffffffffffffffffffffffffffff168152505090506000816080015190508073ffffffffffffffffffffffffffffffffffffffff166108fc349081150290604051600060405180830381858888f193505050501580156105d1573d6000803e3d6000fd5b5034826060015101826060018181525050816002600085815260200190815260200160002060008201518160000155602082015181600101908051906020019061061c929190610baa565b50604082015181600201556060820151816003015560808201518160040160006101000a81548173ffffffffffffffffffffffffffffffffffffffff021916908373ffffffffffffffffffffffffffffffffffffffff1602179055509050507f62528d3901d309eb0bc8dd32b4a660ff3f0a164a75c6617ef82019217643ccfe6001548360200151846040015185606001518560405180868152602001806020018581526020018481526020018373ffffffffffffffffffffffffffffffffffffffff1673ffffffffffffffffffffffffffffffffffffffff168152602001828103825286818151815260200191508051906020019080838360005b83811015610733578082015181840152602081019050610718565b50505050905090810190601f1680156107605780820380516001836020036101000a031916815260200191505b50965050505050505060405180910390a1505050565b6002602052806000526040600020600091509050806000015490806001018054600181600116156101000203166002900480601f0160208091040260200160405190810160405280929190818152602001828054600181600116156101000203166002900480156108285780601f106107fd57610100808354040283529160200191610828565b820191906000526020600020905b81548152906001019060200180831161080b57829003601f168201915b5050505050908060020154908060030154908060040160009054906101000a900473ffffffffffffffffffffffffffffffffffffffff16905085565b600081511115156108dd576040517f08c379a00000000000000000000000000000000000000000000000000000000081526004018080602001828103825260148152602001807f506c6561736520656e7465722061206e616d652100000000000000000000000081525060200191505060405180910390fd5b60006108e882610acc565b905060016000815480929190600101919050555060a0604051908101604052806001548152602001838152602001828152602001600081526020013373ffffffffffffffffffffffffffffffffffffffff16815250600260006001548152602001908152602001600020600082015181600001556020820151816001019080519060200190610978929190610baa565b50604082015181600201556060820151816003015560808201518160040160006101000a81548173ffffffffffffffffffffffffffffffffffffffff021916908373ffffffffffffffffffffffffffffffffffffffff1602179055509050507f25461e161d4b218e81ecce4a5d9a3a9563f6621ad3254d0d202cad21b18d035e600154838360003360405180868152602001806020018581526020018481526020018373ffffffffffffffffffffffffffffffffffffffff1673ffffffffffffffffffffffffffffffffffffffff168152602001828103825286818151815260200191508051906020019080838360005b83811015610a84578082015181840152602081019050610a69565b50505050905090810190601f168015610ab15780820380516001836020036101000a031916815260200191505b50965050505050505060405180910390a15050565b60015481565b600080826040516020018082805190602001908083835b602083101515610b085780518252602082019150602081019050602083039250610ae3565b6001836020036101000a03801982511681845116808217855250505050505090500191505060405160208183030381529060405280519060200120600190049050662386f26fc1000081811515610b5b57fe5b06915050919050565b60a06040519081016040528060008152602001606081526020016000815260200160008152602001600073ffffffffffffffffffffffffffffffffffffffff1681525090565b828054600181600116156101000203166002900490600052602060002090601f016020900481019282601f10610beb57805160ff1916838001178555610c19565b82800160010185558215610c19579182015b82811115610c18578251825591602001919060010190610bfd565b5b509050610c269190610c2a565b5090565b610c4c91905b80821115610c48576000816000905550600101610c30565b5090565b9056fea165627a7a72305820fcc0b3377a28d97270b9ec1bc0056b7fa3a08760925d87326a408d427eaab6a90029",
  "source": "pragma solidity ^0.5.0;\n\n\ncontract RoboGame {\n    string public name;\n    uint256 public robotCount = 0;\n\n    mapping(uint256 => Robot) public robots;\n\n    struct Robot {\n        uint256 robotID;\n        string name;\n        uint256 robotdna;\n        uint256 level;\n        address payable owner;\n    }\n\n    event RobotCreated(\n        uint256 robotID,\n        string name,\n        uint256 robotdna,\n        uint256 level,\n        address payable owner\n    );\n\n    event LevelUp(\n        uint256 robotID,\n        string name,\n        uint256 robotdna,\n        uint256 level,\n        address payable owner\n    );\n\n    constructor() public {\n        name = \"Robot game!\";\n    }\n\n    function _createDna(string memory _str) private pure returns (uint256) {\n        uint256 rand = uint256(keccak256(abi.encodePacked(_str)));\n        return rand % 10**16;\n    }\n\n    function createRobot(string memory _name) public {\n        require(bytes(_name).length > 0, \"Please enter a name!\");\n        uint256 _robotdna = _createDna(_name);\n        robotCount++;\n        robots[robotCount] = Robot(robotCount, _name, _robotdna, 0, msg.sender);\n        emit RobotCreated(robotCount, _name, _robotdna, 0, msg.sender);\n    }\n\n    function levelRobot(uint256 _robotID) public payable {\n        require(_robotID > 0 && _robotID <= robotCount, \"Invalid ID\");\n        Robot memory _robot = robots[_robotID];\n        address payable _owner = _robot.owner;\n        address(_owner).transfer(msg.value);\n        _robot.level = _robot.level + msg.value;\n        robots[_robotID] = _robot;\n\n        emit LevelUp(\n            robotCount,\n            _robot.name,\n            _robot.robotdna,\n            _robot.level,\n            _owner\n        );\n    }\n}\n",
  "sourcePath": "/Users/sc/bills_block/src/contracts/RoboGame.sol",
  "compiler": {
    "name": "solc",
    "version": "0.5.0+commit.1d4f565a.Emscripten.clang"
  },
  "schemaVersion": "3.0.2",
  "updatedAt": "2020-05-21T04:36:09.619Z",
  "devdoc": {
    "methods": {}
  },
  "userdoc": {
    "methods": {}
  }
}